{
  "contractName": "TodoContract",
  "abi": [
    {
      "anonymous": false,
      "inputs": [
        {
          "indexed": false,
          "internalType": "string",
          "name": "task",
          "type": "string"
        },
        {
          "indexed": false,
          "internalType": "uint256",
          "name": "taskNumber",
          "type": "uint256"
        }
      ],
      "name": "TaskCreated",
      "type": "event"
    },
    {
      "anonymous": false,
      "inputs": [
        {
          "indexed": false,
          "internalType": "uint256",
          "name": "taskNumber",
          "type": "uint256"
        }
      ],
      "name": "TaskDeleted",
      "type": "event"
    },
    {
      "anonymous": false,
      "inputs": [
        {
          "indexed": false,
          "internalType": "string",
          "name": "task",
          "type": "string"
        },
        {
          "indexed": false,
          "internalType": "uint256",
          "name": "taskId",
          "type": "uint256"
        },
        {
          "indexed": false,
          "internalType": "bool",
          "name": "isComplete",
          "type": "bool"
        }
      ],
      "name": "TaskIsCompleteToggled",
      "type": "event"
    },
    {
      "anonymous": false,
      "inputs": [
        {
          "indexed": false,
          "internalType": "string",
          "name": "task",
          "type": "string"
        },
        {
          "indexed": false,
          "internalType": "uint256",
          "name": "taskId",
          "type": "uint256"
        }
      ],
      "name": "TaskUpdated",
      "type": "event"
    },
    {
      "inputs": [],
      "name": "taskCount",
      "outputs": [
        {
          "internalType": "uint256",
          "name": "",
          "type": "uint256"
        }
      ],
      "stateMutability": "view",
      "type": "function",
      "constant": true
    },
    {
      "inputs": [
        {
          "internalType": "uint256",
          "name": "",
          "type": "uint256"
        }
      ],
      "name": "todos",
      "outputs": [
        {
          "internalType": "uint256",
          "name": "index",
          "type": "uint256"
        },
        {
          "internalType": "string",
          "name": "taskName",
          "type": "string"
        },
        {
          "internalType": "bool",
          "name": "isComplete",
          "type": "bool"
        }
      ],
      "stateMutability": "view",
      "type": "function",
      "constant": true
    },
    {
      "inputs": [
        {
          "internalType": "string",
          "name": "_taskName",
          "type": "string"
        }
      ],
      "name": "createTask",
      "outputs": [],
      "stateMutability": "nonpayable",
      "type": "function"
    },
    {
      "inputs": [
        {
          "internalType": "string",
          "name": "_taskName",
          "type": "string"
        },
        {
          "internalType": "uint256",
          "name": "_taskId",
          "type": "uint256"
        }
      ],
      "name": "updateTask",
      "outputs": [],
      "stateMutability": "nonpayable",
      "type": "function"
    },
    {
      "inputs": [
        {
          "internalType": "uint256",
          "name": "_taskId",
          "type": "uint256"
        }
      ],
      "name": "toggleComplete",
      "outputs": [],
      "stateMutability": "nonpayable",
      "type": "function"
    },
    {
      "inputs": [
        {
          "internalType": "uint256",
          "name": "_taskId",
          "type": "uint256"
        }
      ],
      "name": "deleteTask",
      "outputs": [],
      "stateMutability": "nonpayable",
      "type": "function"
    }
  ],
  "bytecode": "0x60806040526000805534801561001457600080fd5b50610b0d806100246000396000f3fe608060405234801561001057600080fd5b50600436106100625760003560e01c80630951e5bd14610067578063111002aa146100835780634779ba581461009f578063560f3192146100bb578063b6cb58a5146100d7578063bc8bc2b4146100f5575b600080fd5b610081600480360381019061007c91906105a4565b610127565b005b61009d60048036038101906100989190610717565b6101ef565b005b6100b960048036038101906100b49190610760565b6102ce565b005b6100d560048036038101906100d091906105a4565b610336565b005b6100df6103b2565b6040516100ec91906107cb565b60405180910390f35b61010f600480360381019061010a91906105a4565b6103b8565b60405161011e93929190610889565b60405180910390f35b6001600082815260200190815260200160002060020160009054906101000a900460ff16156001600083815260200190815260200160002060020160006101000a81548160ff0219169083151502179055507f21d25b1182ece704b24eedd00ef3879b75f4bd2e9a3137cfde0c6405b28ce78c60016000838152602001908152602001600020600101826001600085815260200190815260200160002060020160009054906101000a900460ff166040516101e4939291906109bd565b60405180910390a150565b60405180606001604052806000548152602001828152602001600015158152506001600080548152602001908152602001600020600082015181600001556020820151816001019080519060200190610249929190610477565b5060408201518160020160006101000a81548160ff02191690831515021790555090505060008081548092919061027f90610a2a565b91905055507fed1d390c812a65783a09786b88b832ef75bb16882fbc56eeea9bf61a4c1a8ac78160016000546102b59190610a73565b6040516102c3929190610aa7565b60405180910390a150565b816001600083815260200190815260200160002060010190805190602001906102f8929190610477565b507fa19b2211615873e8fbe860460ba43e467bf8f2d28d98b023144fc0739af842cd828260405161032a929190610aa7565b60405180910390a15050565b6001600082815260200190815260200160002060008082016000905560018201600061036291906104fd565b6002820160006101000a81549060ff021916905550507fd078b251d950cc55c44340be1db732337ef4939a76e1367ee271ad2cb19c46af816040516103a791906107cb565b60405180910390a150565b60005481565b60016020528060005260406000206000915090508060000154908060010180546103e1906108f6565b80601f016020809104026020016040519081016040528092919081815260200182805461040d906108f6565b801561045a5780601f1061042f5761010080835404028352916020019161045a565b820191906000526020600020905b81548152906001019060200180831161043d57829003601f168201915b5050505050908060020160009054906101000a900460ff16905083565b828054610483906108f6565b90600052602060002090601f0160209004810192826104a557600085556104ec565b82601f106104be57805160ff19168380011785556104ec565b828001600101855582156104ec579182015b828111156104eb5782518255916020019190600101906104d0565b5b5090506104f9919061053d565b5090565b508054610509906108f6565b6000825580601f1061051b575061053a565b601f016020900490600052602060002090810190610539919061053d565b5b50565b5b8082111561055657600081600090555060010161053e565b5090565b6000604051905090565b600080fd5b600080fd5b6000819050919050565b6105818161056e565b811461058c57600080fd5b50565b60008135905061059e81610578565b92915050565b6000602082840312156105ba576105b9610564565b5b60006105c88482850161058f565b91505092915050565b600080fd5b600080fd5b6000601f19601f8301169050919050565b7f4e487b7100000000000000000000000000000000000000000000000000000000600052604160045260246000fd5b610624826105db565b810181811067ffffffffffffffff82111715610643576106426105ec565b5b80604052505050565b600061065661055a565b9050610662828261061b565b919050565b600067ffffffffffffffff821115610682576106816105ec565b5b61068b826105db565b9050602081019050919050565b82818337600083830152505050565b60006106ba6106b584610667565b61064c565b9050828152602081018484840111156106d6576106d56105d6565b5b6106e1848285610698565b509392505050565b600082601f8301126106fe576106fd6105d1565b5b813561070e8482602086016106a7565b91505092915050565b60006020828403121561072d5761072c610564565b5b600082013567ffffffffffffffff81111561074b5761074a610569565b5b610757848285016106e9565b91505092915050565b6000806040838503121561077757610776610564565b5b600083013567ffffffffffffffff81111561079557610794610569565b5b6107a1858286016106e9565b92505060206107b28582860161058f565b9150509250929050565b6107c58161056e565b82525050565b60006020820190506107e060008301846107bc565b92915050565b600081519050919050565b600082825260208201905092915050565b60005b83811015610820578082015181840152602081019050610805565b8381111561082f576000848401525b50505050565b6000610840826107e6565b61084a81856107f1565b935061085a818560208601610802565b610863816105db565b840191505092915050565b60008115159050919050565b6108838161086e565b82525050565b600060608201905061089e60008301866107bc565b81810360208301526108b08185610835565b90506108bf604083018461087a565b949350505050565b7f4e487b7100000000000000000000000000000000000000000000000000000000600052602260045260246000fd5b6000600282049050600182168061090e57607f821691505b60208210811415610922576109216108c7565b5b50919050565b60008190508160005260206000209050919050565b6000815461094a816108f6565b61095481866107f1565b9450600182166000811461096f5760018114610981576109b4565b60ff19831686526020860193506109b4565b61098a85610928565b60005b838110156109ac5781548189015260018201915060208101905061098d565b808801955050505b50505092915050565b600060608201905081810360008301526109d7818661093d565b90506109e660208301856107bc565b6109f3604083018461087a565b949350505050565b7f4e487b7100000000000000000000000000000000000000000000000000000000600052601160045260246000fd5b6000610a358261056e565b91507fffffffffffffffffffffffffffffffffffffffffffffffffffffffffffffffff821415610a6857610a676109fb565b5b600182019050919050565b6000610a7e8261056e565b9150610a898361056e565b925082821015610a9c57610a9b6109fb565b5b828203905092915050565b60006040820190508181036000830152610ac18185610835565b9050610ad060208301846107bc565b939250505056fea2646970667358221220c2ec2205695d9d81b8c37fe7134446a68a06b4ee9d50c0f9984f09f48efb2f2f64736f6c634300080b0033",
  "immutableReferences": {},
  "source": "// TodoContract.sol\n// SPDX-License-Identifier: GPL-3.0\npragma solidity ^0.8.4;\n\ncontract TodoContract {\n    uint256 public taskCount = 0;\n\n    struct Task {\n        uint256 index;\n        string taskName;\n        bool isComplete;\n    }\n\n    mapping(uint256 => Task) public todos;\n    event TaskCreated(string task, uint256 taskNumber);\n    event TaskUpdated(string task, uint256 taskId);\n    event TaskIsCompleteToggled(string task, uint256 taskId, bool isComplete);\n    event TaskDeleted(uint256 taskNumber);\n\n    function createTask(string memory _taskName) public {\n        todos[taskCount] = Task(taskCount, _taskName, false);\n        taskCount++;\n        emit TaskCreated(_taskName, taskCount - 1);\n    }\n\n    function updateTask(string memory _taskName, uint256 _taskId) public {\n        todos[_taskId].taskName = _taskName;\n        emit TaskUpdated(_taskName, _taskId);\n    }\n\n    function toggleComplete(uint256 _taskId) public {\n        todos[_taskId].isComplete = !todos[_taskId].isComplete;\n        emit TaskIsCompleteToggled(todos[_taskId].taskName, _taskId, todos[_taskId].isComplete);\n    }\n\n    function deleteTask(uint256 _taskId) public {\n        delete todos[_taskId];\n        emit TaskDeleted(_taskId);\n    }\n}\n",
  "sourcePath": "/Users/yamamuroyuuki/flutter_dapp/todo_dapp_contract/contracts/TodoContract.sol",
  "compiler": {
    "name": "solc",
    "version": "0.8.11+commit.d7f03943.Emscripten.clang"
  },
  "schemaVersion": "3.4.7",
  "updatedAt": "2022-06-16T06:48:22.797Z",
  "networkType": "ethereum",
  "devdoc": {
    "kind": "dev",
    "methods": {},
    "version": 1
  },
  "userdoc": {
    "kind": "user",
    "methods": {},
    "version": 1
  }
}